{
  "_format": "hh-sol-artifact-1",
  "contractName": "Xes",
  "sourceName": "contracts/Xes.sol",
  "abi": [
    {
      "inputs": [],
      "stateMutability": "nonpayable",
      "type": "constructor"
    },
    {
      "inputs": [],
      "name": "amountFounded",
      "outputs": [
        {
          "internalType": "uint256",
          "name": "",
          "type": "uint256"
        }
      ],
      "stateMutability": "view",
      "type": "function"
    },
    {
      "inputs": [],
      "name": "creator",
      "outputs": [
        {
          "internalType": "address",
          "name": "",
          "type": "address"
        }
      ],
      "stateMutability": "view",
      "type": "function"
    },
    {
      "inputs": [
        {
          "internalType": "uint256",
          "name": "amount",
          "type": "uint256"
        }
      ],
      "name": "fundMe",
      "outputs": [],
      "stateMutability": "payable",
      "type": "function"
    },
    {
      "inputs": [],
      "name": "getKeys",
      "outputs": [
        {
          "internalType": "string[]",
          "name": "",
          "type": "string[]"
        }
      ],
      "stateMutability": "view",
      "type": "function"
    },
    {
      "inputs": [
        {
          "internalType": "string",
          "name": "username",
          "type": "string"
        }
      ],
      "name": "getUserAddress",
      "outputs": [
        {
          "internalType": "address",
          "name": "",
          "type": "address"
        }
      ],
      "stateMutability": "view",
      "type": "function"
    },
    {
      "inputs": [
        {
          "internalType": "uint256",
          "name": "",
          "type": "uint256"
        }
      ],
      "name": "keys",
      "outputs": [
        {
          "internalType": "string",
          "name": "",
          "type": "string"
        }
      ],
      "stateMutability": "view",
      "type": "function"
    },
    {
      "inputs": [
        {
          "internalType": "string",
          "name": "username",
          "type": "string"
        },
        {
          "internalType": "uint256",
          "name": "amount",
          "type": "uint256"
        }
      ],
      "name": "send",
      "outputs": [],
      "stateMutability": "payable",
      "type": "function"
    },
    {
      "inputs": [
        {
          "internalType": "string",
          "name": "username",
          "type": "string"
        }
      ],
      "name": "userCreate",
      "outputs": [],
      "stateMutability": "nonpayable",
      "type": "function"
    },
    {
      "inputs": [
        {
          "internalType": "string",
          "name": "",
          "type": "string"
        }
      ],
      "name": "users",
      "outputs": [
        {
          "internalType": "address",
          "name": "",
          "type": "address"
        }
      ],
      "stateMutability": "view",
      "type": "function"
    },
    {
      "inputs": [],
      "name": "withdrawFundMe",
      "outputs": [],
      "stateMutability": "nonpayable",
      "type": "function"
    }
  ],
  "bytecode": "0x608060405234801561001057600080fd5b50336000806101000a81548173ffffffffffffffffffffffffffffffffffffffff021916908373ffffffffffffffffffffffffffffffffffffffff160217905550611195806100606000396000f3fe6080604052600436106100915760003560e01c8063689e1c0311610059578063689e1c031461017d57806384b39bb0146101ba578063aa9b811a146101e3578063c547f689146101ff578063ccc95e031461022a57610091565b806302d05d3f146100965780630cb6aaf1146100c1578063104a9c4e146100fe5780632150c518146101155780634985e85c14610140575b600080fd5b3480156100a257600080fd5b506100ab610246565b6040516100b891906107a7565b60405180910390f35b3480156100cd57600080fd5b506100e860048036038101906100e3919061080c565b61026a565b6040516100f591906108c9565b60405180910390f35b34801561010a57600080fd5b50610113610316565b005b34801561012157600080fd5b5061012a6103b9565b60405161013791906109f7565b60405180910390f35b34801561014c57600080fd5b5061016760048036038101906101629190610a7e565b610492565b60405161017491906107a7565b60405180910390f35b34801561018957600080fd5b506101a4600480360381019061019f9190610bfb565b6104dd565b6040516101b191906107a7565b60405180910390f35b3480156101c657600080fd5b506101e160048036038101906101dc9190610a7e565b610526565b005b6101fd60048036038101906101f8919061080c565b6105c7565b005b34801561020b57600080fd5b506102146105e3565b6040516102219190610c53565b60405180910390f35b610244600480360381019061023f9190610c6e565b6105e9565b005b60008054906101000a900473ffffffffffffffffffffffffffffffffffffffff1681565b6002818154811061027a57600080fd5b90600052602060002001600091509050805461029590610cfd565b80601f01602080910402602001604051908101604052809291908181526020018280546102c190610cfd565b801561030e5780601f106102e35761010080835404028352916020019161030e565b820191906000526020600020905b8154815290600101906020018083116102f157829003601f168201915b505050505081565b60008054906101000a900473ffffffffffffffffffffffffffffffffffffffff1673ffffffffffffffffffffffffffffffffffffffff163373ffffffffffffffffffffffffffffffffffffffff161461036e57600080fd5b3373ffffffffffffffffffffffffffffffffffffffff166108fc6001549081150290604051600060405180830381858888f193505050501580156103b6573d6000803e3d6000fd5b50565b60606002805480602002602001604051908101604052809291908181526020016000905b828210156104895783829060005260206000200180546103fc90610cfd565b80601f016020809104026020016040519081016040528092919081815260200182805461042890610cfd565b80156104755780601f1061044a57610100808354040283529160200191610475565b820191906000526020600020905b81548152906001019060200180831161045857829003601f168201915b5050505050815260200190600101906103dd565b50505050905090565b6000600383836040516104a6929190610d5e565b908152602001604051809103902060009054906101000a900473ffffffffffffffffffffffffffffffffffffffff16905092915050565b6003818051602081018201805184825260208301602085012081835280955050505050506000915054906101000a900473ffffffffffffffffffffffffffffffffffffffff1681565b6002828290918060018154018082558091505060019003906000526020600020016000909192909192909192909192509182610563929190610f2e565b503360038383604051610577929190610d5e565b908152602001604051809103902060006101000a81548173ffffffffffffffffffffffffffffffffffffffff021916908373ffffffffffffffffffffffffffffffffffffffff1602179055505050565b80600160008282546105d9919061102d565b9250508190555050565b60015481565b34811461062b576040517f08c379a0000000000000000000000000000000000000000000000000000000008152600401610622906110d3565b60405180910390fd5b600073ffffffffffffffffffffffffffffffffffffffff1660038484604051610655929190610d5e565b908152602001604051809103902060009054906101000a900473ffffffffffffffffffffffffffffffffffffffff1673ffffffffffffffffffffffffffffffffffffffff16036106da576040517f08c379a00000000000000000000000000000000000000000000000000000000081526004016106d19061113f565b60405180910390fd5b600383836040516106ec929190610d5e565b908152602001604051809103902060009054906101000a900473ffffffffffffffffffffffffffffffffffffffff1673ffffffffffffffffffffffffffffffffffffffff166108fc829081150290604051600060405180830381858888f19350505050158015610760573d6000803e3d6000fd5b50505050565b600073ffffffffffffffffffffffffffffffffffffffff82169050919050565b600061079182610766565b9050919050565b6107a181610786565b82525050565b60006020820190506107bc6000830184610798565b92915050565b6000604051905090565b600080fd5b600080fd5b6000819050919050565b6107e9816107d6565b81146107f457600080fd5b50565b600081359050610806816107e0565b92915050565b600060208284031215610822576108216107cc565b5b6000610830848285016107f7565b91505092915050565b600081519050919050565b600082825260208201905092915050565b60005b83811015610873578082015181840152602081019050610858565b60008484015250505050565b6000601f19601f8301169050919050565b600061089b82610839565b6108a58185610844565b93506108b5818560208601610855565b6108be8161087f565b840191505092915050565b600060208201905081810360008301526108e38184610890565b905092915050565b600081519050919050565b600082825260208201905092915050565b6000819050602082019050919050565b600082825260208201905092915050565b600061093382610839565b61093d8185610917565b935061094d818560208601610855565b6109568161087f565b840191505092915050565b600061096d8383610928565b905092915050565b6000602082019050919050565b600061098d826108eb565b61099781856108f6565b9350836020820285016109a985610907565b8060005b858110156109e557848403895281516109c68582610961565b94506109d183610975565b925060208a019950506001810190506109ad565b50829750879550505050505092915050565b60006020820190508181036000830152610a118184610982565b905092915050565b600080fd5b600080fd5b600080fd5b60008083601f840112610a3e57610a3d610a19565b5b8235905067ffffffffffffffff811115610a5b57610a5a610a1e565b5b602083019150836001820283011115610a7757610a76610a23565b5b9250929050565b60008060208385031215610a9557610a946107cc565b5b600083013567ffffffffffffffff811115610ab357610ab26107d1565b5b610abf85828601610a28565b92509250509250929050565b600080fd5b7f4e487b7100000000000000000000000000000000000000000000000000000000600052604160045260246000fd5b610b088261087f565b810181811067ffffffffffffffff82111715610b2757610b26610ad0565b5b80604052505050565b6000610b3a6107c2565b9050610b468282610aff565b919050565b600067ffffffffffffffff821115610b6657610b65610ad0565b5b610b6f8261087f565b9050602081019050919050565b82818337600083830152505050565b6000610b9e610b9984610b4b565b610b30565b905082815260208101848484011115610bba57610bb9610acb565b5b610bc5848285610b7c565b509392505050565b600082601f830112610be257610be1610a19565b5b8135610bf2848260208601610b8b565b91505092915050565b600060208284031215610c1157610c106107cc565b5b600082013567ffffffffffffffff811115610c2f57610c2e6107d1565b5b610c3b84828501610bcd565b91505092915050565b610c4d816107d6565b82525050565b6000602082019050610c686000830184610c44565b92915050565b600080600060408486031215610c8757610c866107cc565b5b600084013567ffffffffffffffff811115610ca557610ca46107d1565b5b610cb186828701610a28565b93509350506020610cc4868287016107f7565b9150509250925092565b7f4e487b7100000000000000000000000000000000000000000000000000000000600052602260045260246000fd5b60006002820490506001821680610d1557607f821691505b602082108103610d2857610d27610cce565b5b50919050565b600081905092915050565b6000610d458385610d2e565b9350610d52838584610b7c565b82840190509392505050565b6000610d6b828486610d39565b91508190509392505050565b600082905092915050565b60008190508160005260206000209050919050565b60006020601f8301049050919050565b600082821b905092915050565b600060088302610de47fffffffffffffffffffffffffffffffffffffffffffffffffffffffffffffffff82610da7565b610dee8683610da7565b95508019841693508086168417925050509392505050565b6000819050919050565b6000610e2b610e26610e21846107d6565b610e06565b6107d6565b9050919050565b6000819050919050565b610e4583610e10565b610e59610e5182610e32565b848454610db4565b825550505050565b600090565b610e6e610e61565b610e79818484610e3c565b505050565b5b81811015610e9d57610e92600082610e66565b600181019050610e7f565b5050565b601f821115610ee257610eb381610d82565b610ebc84610d97565b81016020851015610ecb578190505b610edf610ed785610d97565b830182610e7e565b50505b505050565b600082821c905092915050565b6000610f0560001984600802610ee7565b1980831691505092915050565b6000610f1e8383610ef4565b9150826002028217905092915050565b610f388383610d77565b67ffffffffffffffff811115610f5157610f50610ad0565b5b610f5b8254610cfd565b610f66828285610ea1565b6000601f831160018114610f955760008415610f83578287013590505b610f8d8582610f12565b865550610ff5565b601f198416610fa386610d82565b60005b82811015610fcb57848901358255600182019150602085019450602081019050610fa6565b86831015610fe85784890135610fe4601f891682610ef4565b8355505b6001600288020188555050505b50505050505050565b7f4e487b7100000000000000000000000000000000000000000000000000000000600052601160045260246000fd5b6000611038826107d6565b9150611043836107d6565b925082820190508082111561105b5761105a610ffe565b5b92915050565b7f76616c75652073656e646564206d75737420626520657175616c20746f20616d60008201527f6f756e7400000000000000000000000000000000000000000000000000000000602082015250565b60006110bd602483610844565b91506110c882611061565b604082019050919050565b600060208201905081810360008301526110ec816110b0565b9050919050565b7f6e6f207375636820757365720000000000000000000000000000000000000000600082015250565b6000611129600c83610844565b9150611134826110f3565b602082019050919050565b600060208201905081810360008301526111588161111c565b905091905056fea264697066735822122040f30fbb3f6e1f243e1bf63140ffc36bc241fb2c77680720018175b36630fac464736f6c63430008130033",
  "linkReferences": {},
  "deployedLinkReferences": {}
}